{
    "_format": "hh-sol-artifact-1",
    "contractName": "UserApp",
    "sourceName": "contracts/UserApp.sol",
    "abi": [
        {
            "inputs": [
                {
                    "internalType": "contract ISuperfluid",
                    "name": "host",
                    "type": "address"
                },
                {
                    "internalType": "address",
                    "name": "_owner",
                    "type": "address"
                }
            ],
            "stateMutability": "nonpayable",
            "type": "constructor"
        },
        {
            "inputs": [
                {
                    "internalType": "address",
                    "name": "",
                    "type": "address"
                }
            ],
            "name": "accountList",
            "outputs": [
                {
                    "internalType": "bool",
                    "name": "",
                    "type": "bool"
                }
            ],
            "stateMutability": "view",
            "type": "function"
        },
        {
            "inputs": [
                {
                    "internalType": "address",
                    "name": "to",
                    "type": "address"
                },
                {
                    "internalType": "contract ISuperfluidToken",
                    "name": "token",
                    "type": "address"
                },
                {
                    "internalType": "int96",
                    "name": "allowance",
                    "type": "int96"
                }
            ],
            "name": "approveFlow",
            "outputs": [],
            "stateMutability": "nonpayable",
            "type": "function"
        },
        {
            "inputs": [],
            "name": "cfaV1",
            "outputs": [
                {
                    "internalType": "contract ISuperfluid",
                    "name": "host",
                    "type": "address"
                },
                {
                    "internalType": "contract IConstantFlowAgreementV1",
                    "name": "cfa",
                    "type": "address"
                }
            ],
            "stateMutability": "view",
            "type": "function"
        },
        {
            "inputs": [
                {
                    "internalType": "address",
                    "name": "_newOwner",
                    "type": "address"
                }
            ],
            "name": "changeOwner",
            "outputs": [],
            "stateMutability": "nonpayable",
            "type": "function"
        },
        {
            "inputs": [
                {
                    "internalType": "contract ISuperfluidToken",
                    "name": "token",
                    "type": "address"
                },
                {
                    "internalType": "int96",
                    "name": "flowRate",
                    "type": "int96"
                },
                {
                    "internalType": "address",
                    "name": "_artistAddress",
                    "type": "address"
                }
            ],
            "name": "createFlowFromArtist",
            "outputs": [],
            "stateMutability": "nonpayable",
            "type": "function"
        },
        {
            "inputs": [
                {
                    "internalType": "contract ISuperfluidToken",
                    "name": "token",
                    "type": "address"
                },
                {
                    "internalType": "address",
                    "name": "artistAddress",
                    "type": "address"
                },
                {
                    "internalType": "int96",
                    "name": "flowRate",
                    "type": "int96"
                }
            ],
            "name": "createFlowToArtist",
            "outputs": [],
            "stateMutability": "nonpayable",
            "type": "function"
        },
        {
            "inputs": [
                {
                    "internalType": "contract ISuperfluidToken",
                    "name": "token",
                    "type": "address"
                },
                {
                    "internalType": "address",
                    "name": "_artistAddress",
                    "type": "address"
                }
            ],
            "name": "deleteFlowFromArtist",
            "outputs": [],
            "stateMutability": "nonpayable",
            "type": "function"
        },
        {
            "inputs": [
                {
                    "internalType": "contract ISuperfluidToken",
                    "name": "token",
                    "type": "address"
                },
                {
                    "internalType": "address",
                    "name": "artistAddress",
                    "type": "address"
                }
            ],
            "name": "deleteFlowToArtist",
            "outputs": [],
            "stateMutability": "nonpayable",
            "type": "function"
        },
        {
            "inputs": [],
            "name": "owner",
            "outputs": [
                {
                    "internalType": "address",
                    "name": "",
                    "type": "address"
                }
            ],
            "stateMutability": "view",
            "type": "function"
        },
        {
            "inputs": [
                {
                    "internalType": "address",
                    "name": "_account",
                    "type": "address"
                }
            ],
            "name": "removeAccount",
            "outputs": [],
            "stateMutability": "nonpayable",
            "type": "function"
        },
        {
            "inputs": [
                {
                    "internalType": "contract ISuperToken",
                    "name": "token",
                    "type": "address"
                },
                {
                    "internalType": "uint256",
                    "name": "amount",
                    "type": "uint256"
                }
            ],
            "name": "sendLumpSumToContract",
            "outputs": [],
            "stateMutability": "nonpayable",
            "type": "function"
        },
        {
            "inputs": [
                {
                    "internalType": "contract ISuperfluidToken",
                    "name": "token",
                    "type": "address"
                },
                {
                    "internalType": "int96",
                    "name": "newFlowRate",
                    "type": "int96"
                },
                {
                    "internalType": "address",
                    "name": "_artistAddress",
                    "type": "address"
                }
            ],
            "name": "updateFlowFromArtist",
            "outputs": [],
            "stateMutability": "nonpayable",
            "type": "function"
        },
        {
            "inputs": [
                {
                    "internalType": "contract ISuperfluidToken",
                    "name": "token",
                    "type": "address"
                },
                {
                    "internalType": "address",
                    "name": "artistAddress",
                    "type": "address"
                },
                {
                    "internalType": "int96",
                    "name": "newFlowRate",
                    "type": "int96"
                }
            ],
            "name": "updateFlowToArtist",
            "outputs": [],
            "stateMutability": "nonpayable",
            "type": "function"
        },
        {
            "inputs": [
                {
                    "internalType": "address",
                    "name": "_account",
                    "type": "address"
                }
            ],
            "name": "whitelistAccount",
            "outputs": [],
            "stateMutability": "nonpayable",
            "type": "function"
        }
    ],
    "bytecode": "0x60806040523480156200001157600080fd5b5060405162002d2038038062002d208339818101604052810190620000379190620003df565b600073ffffffffffffffffffffffffffffffffffffffff168273ffffffffffffffffffffffffffffffffffffffff160362000077576200007662000426565b5b620000a760405180606001604052806024815260200162002cfc60249139336200026160201b62000e691760201c565b806000806101000a81548173ffffffffffffffffffffffffffffffffffffffff021916908373ffffffffffffffffffffffffffffffffffffffff16021790555060405180604001604052808373ffffffffffffffffffffffffffffffffffffffff1681526020018373ffffffffffffffffffffffffffffffffffffffff1663b6d200de7fa9214cc96615e0085d3bb077758db69497dc2dce3b2b1e97bc93c3d18d83efd36040518263ffffffff1660e01b815260040162000169919062000470565b602060405180830381865afa15801562000187573d6000803e3d6000fd5b505050506040513d601f19601f82011682018060405250810190620001ad9190620004d2565b73ffffffffffffffffffffffffffffffffffffffff16815250600160008201518160000160006101000a81548173ffffffffffffffffffffffffffffffffffffffff021916908373ffffffffffffffffffffffffffffffffffffffff16021790555060208201518160010160006101000a81548173ffffffffffffffffffffffffffffffffffffffff021916908373ffffffffffffffffffffffffffffffffffffffff1602179055509050505050620005ed565b6200030382826040516024016200027a929190620005b9565b6040516020818303038152906040527f319af333000000000000000000000000000000000000000000000000000000007bffffffffffffffffffffffffffffffffffffffffffffffffffffffff19166020820180517bffffffffffffffffffffffffffffffffffffffffffffffffffffffff83818316178352505050506200030760201b60201c565b5050565b60008151905060006a636f6e736f6c652e6c6f679050602083016000808483855afa5050505050565b600080fd5b600073ffffffffffffffffffffffffffffffffffffffff82169050919050565b6000620003628262000335565b9050919050565b6000620003768262000355565b9050919050565b620003888162000369565b81146200039457600080fd5b50565b600081519050620003a8816200037d565b92915050565b620003b98162000355565b8114620003c557600080fd5b50565b600081519050620003d981620003ae565b92915050565b60008060408385031215620003f957620003f862000330565b5b6000620004098582860162000397565b92505060206200041c85828601620003c8565b9150509250929050565b7f4e487b7100000000000000000000000000000000000000000000000000000000600052600160045260246000fd5b6000819050919050565b6200046a8162000455565b82525050565b60006020820190506200048760008301846200045f565b92915050565b60006200049a8262000355565b9050919050565b620004ac816200048d565b8114620004b857600080fd5b50565b600081519050620004cc81620004a1565b92915050565b600060208284031215620004eb57620004ea62000330565b5b6000620004fb84828501620004bb565b91505092915050565b600081519050919050565b600082825260208201905092915050565b60005b838110156200054057808201518184015260208101905062000523565b8381111562000550576000848401525b50505050565b6000601f19601f8301169050919050565b6000620005748262000504565b6200058081856200050f565b93506200059281856020860162000520565b6200059d8162000556565b840191505092915050565b620005b38162000355565b82525050565b60006040820190508181036000830152620005d5818562000567565b9050620005e66020830184620005a8565b9392505050565b6126ff80620005fd6000396000f3fe608060405234801561001057600080fd5b50600436106100ea5760003560e01c8063a6f9dae11161008c578063d3112b2e11610066578063d3112b2e14610209578063d3a07fcd14610228578063ef235da514610258578063f2ff3b9c14610274576100ea565b8063a6f9dae1146101b5578063a7de18a9146101d1578063c4740a95146101ed576100ea565b806363e0c2f8116100c857806363e0c2f8146101435780636dcccacc1461015f5780638da5cb5b1461017b5780639f2ff94514610199576100ea565b80631d7d48b3146100ef57806326ff92e41461010b5780634b07f55514610127575b600080fd5b61010960048036038101906101049190611c8e565b610290565b005b61012560048036038101906101209190611d42565b610395565b005b610141600480360381019061013c9190611dbb565b610503565b005b61015d60048036038101906101589190611e0e565b61060d565b005b61017960048036038101906101749190611e3b565b6106f6565b005b6101836107ff565b6040516101909190611e9d565b60405180910390f35b6101b360048036038101906101ae9190611e3b565b610823565b005b6101cf60048036038101906101ca9190611e0e565b61092c565b005b6101eb60048036038101906101e69190611eb8565b6109fd565b005b61020760048036038101906102029190611e0e565b610b03565b005b610211610bec565b60405161021f929190611f8b565b60405180910390f35b610242600480360381019061023d9190611e0e565b610c3e565b60405161024f9190611fcf565b60405180910390f35b610272600480360381019061026d9190611eb8565b610c5e565b005b61028e60048036038101906102899190611c8e565b610d64565b005b60008054906101000a900473ffffffffffffffffffffffffffffffffffffffff1673ffffffffffffffffffffffffffffffffffffffff163373ffffffffffffffffffffffffffffffffffffffff16148061033a575060011515600360003373ffffffffffffffffffffffffffffffffffffffff1673ffffffffffffffffffffffffffffffffffffffff16815260200190815260200160002060009054906101000a900460ff161515145b610379576040517f08c379a000000000000000000000000000000000000000000000000000000000815260040161037090612047565b60405180910390fd5b6103913082846001610f05909392919063ffffffff16565b5050565b60008054906101000a900473ffffffffffffffffffffffffffffffffffffffff1673ffffffffffffffffffffffffffffffffffffffff163373ffffffffffffffffffffffffffffffffffffffff16148061043f575060011515600360003373ffffffffffffffffffffffffffffffffffffffff1673ffffffffffffffffffffffffffffffffffffffff16815260200190815260200160002060009054906101000a900460ff161515145b61047e576040517f08c379a000000000000000000000000000000000000000000000000000000000815260040161047590612047565b60405180910390fd5b8173ffffffffffffffffffffffffffffffffffffffff166323b872dd3330846040518463ffffffff1660e01b81526004016104bb93929190612076565b6020604051808303816000875af11580156104da573d6000803e3d6000fd5b505050506040513d601f19601f820116820180604052508101906104fe91906120d9565b505050565b60008054906101000a900473ffffffffffffffffffffffffffffffffffffffff1673ffffffffffffffffffffffffffffffffffffffff163373ffffffffffffffffffffffffffffffffffffffff1614806105ad575060011515600360003373ffffffffffffffffffffffffffffffffffffffff1673ffffffffffffffffffffffffffffffffffffffff16815260200190815260200160002060009054906101000a900460ff161515145b6105ec576040517f08c379a00000000000000000000000000000000000000000000000000000000081526004016105e390612047565b60405180910390fd5b61060783836007846001610f6590949392919063ffffffff16565b50505050565b60008054906101000a900473ffffffffffffffffffffffffffffffffffffffff1673ffffffffffffffffffffffffffffffffffffffff163373ffffffffffffffffffffffffffffffffffffffff161461069b576040517f08c379a000000000000000000000000000000000000000000000000000000000815260040161069290612178565b60405180910390fd5b6001600360008373ffffffffffffffffffffffffffffffffffffffff1673ffffffffffffffffffffffffffffffffffffffff16815260200190815260200160002060006101000a81548160ff02191690831515021790555050565b60008054906101000a900473ffffffffffffffffffffffffffffffffffffffff1673ffffffffffffffffffffffffffffffffffffffff163373ffffffffffffffffffffffffffffffffffffffff1614806107a0575060011515600360003373ffffffffffffffffffffffffffffffffffffffff1673ffffffffffffffffffffffffffffffffffffffff16815260200190815260200160002060009054906101000a900460ff161515145b6107df576040517f08c379a00000000000000000000000000000000000000000000000000000000081526004016107d690612047565b60405180910390fd5b6107f981308585600161117390949392919063ffffffff16565b50505050565b60008054906101000a900473ffffffffffffffffffffffffffffffffffffffff1681565b60008054906101000a900473ffffffffffffffffffffffffffffffffffffffff1673ffffffffffffffffffffffffffffffffffffffff163373ffffffffffffffffffffffffffffffffffffffff1614806108cd575060011515600360008373ffffffffffffffffffffffffffffffffffffffff1673ffffffffffffffffffffffffffffffffffffffff16815260200190815260200160002060009054906101000a900460ff161515145b61090c576040517f08c379a000000000000000000000000000000000000000000000000000000000815260040161090390612047565b60405180910390fd5b6109268130858560016111db90949392919063ffffffff16565b50505050565b60008054906101000a900473ffffffffffffffffffffffffffffffffffffffff1673ffffffffffffffffffffffffffffffffffffffff163373ffffffffffffffffffffffffffffffffffffffff16146109ba576040517f08c379a00000000000000000000000000000000000000000000000000000000081526004016109b1906121e4565b60405180910390fd5b806000806101000a81548173ffffffffffffffffffffffffffffffffffffffff021916908373ffffffffffffffffffffffffffffffffffffffff16021790555050565b60008054906101000a900473ffffffffffffffffffffffffffffffffffffffff1673ffffffffffffffffffffffffffffffffffffffff163373ffffffffffffffffffffffffffffffffffffffff161480610aa7575060011515600360003373ffffffffffffffffffffffffffffffffffffffff1673ffffffffffffffffffffffffffffffffffffffff16815260200190815260200160002060009054906101000a900460ff161515145b610ae6576040517f08c379a0000000000000000000000000000000000000000000000000000000008152600401610add90612047565b60405180910390fd5b610afe8284836001611243909392919063ffffffff16565b505050565b60008054906101000a900473ffffffffffffffffffffffffffffffffffffffff1673ffffffffffffffffffffffffffffffffffffffff163373ffffffffffffffffffffffffffffffffffffffff1614610b91576040517f08c379a0000000000000000000000000000000000000000000000000000000008152600401610b8890612250565b60405180910390fd5b6000600360008373ffffffffffffffffffffffffffffffffffffffff1673ffffffffffffffffffffffffffffffffffffffff16815260200190815260200160002060006101000a81548160ff02191690831515021790555050565b60018060000160009054906101000a900473ffffffffffffffffffffffffffffffffffffffff16908060010160009054906101000a900473ffffffffffffffffffffffffffffffffffffffff16905082565b60036020528060005260406000206000915054906101000a900460ff1681565b60008054906101000a900473ffffffffffffffffffffffffffffffffffffffff1673ffffffffffffffffffffffffffffffffffffffff163373ffffffffffffffffffffffffffffffffffffffff161480610d08575060011515600360003373ffffffffffffffffffffffffffffffffffffffff1673ffffffffffffffffffffffffffffffffffffffff16815260200190815260200160002060009054906101000a900460ff161515145b610d47576040517f08c379a0000000000000000000000000000000000000000000000000000000008152600401610d3e90612047565b60405180910390fd5b610d5f82848360016112a3909392919063ffffffff16565b505050565b60008054906101000a900473ffffffffffffffffffffffffffffffffffffffff1673ffffffffffffffffffffffffffffffffffffffff163373ffffffffffffffffffffffffffffffffffffffff161480610e0e575060011515600360003373ffffffffffffffffffffffffffffffffffffffff1673ffffffffffffffffffffffffffffffffffffffff16815260200190815260200160002060009054906101000a900460ff161515145b610e4d576040517f08c379a0000000000000000000000000000000000000000000000000000000008152600401610e4490612047565b60405180910390fd5b610e658130846001610f05909392919063ffffffff16565b5050565b610f018282604051602401610e7f9291906122f8565b6040516020818303038152906040527f319af333000000000000000000000000000000000000000000000000000000007bffffffffffffffffffffffffffffffffffffffffffffffffffffffff19166020820180517bffffffffffffffffffffffffffffffffffffffffffffffffffffffff8381831617835250505050611303565b5050565b610f5f84848484600067ffffffffffffffff811115610f2757610f26612328565b5b6040519080825280601f01601f191660200182016040528015610f595781602001600182028036833780820191505090505b5061132c565b50505050565b60608560000160009054906101000a900473ffffffffffffffffffffffffffffffffffffffff1673ffffffffffffffffffffffffffffffffffffffff166339255d5b8760010160009054906101000a900473ffffffffffffffffffffffffffffffffffffffff168860010160009054906101000a900473ffffffffffffffffffffffffffffffffffffffff1673ffffffffffffffffffffffffffffffffffffffff1663811b3d40888a8989600067ffffffffffffffff81111561102b5761102a612328565b5b6040519080825280601f01601f19166020018201604052801561105d5781602001600182028036833780820191505090505b506040516024016110729594939291906123f8565b604051602081830303815290604052915060e01b6020820180517bffffffffffffffffffffffffffffffffffffffffffffffffffffffff8381831617835250505050600067ffffffffffffffff8111156110cf576110ce612328565b5b6040519080825280601f01601f1916602001820160405280156111015781602001600182028036833780820191505090505b506040518463ffffffff1660e01b815260040161112093929190612452565b6000604051808303816000875af115801561113f573d6000803e3d6000fd5b505050506040513d6000823e3d601f19601f82011682018060405250810190611168919061258e565b905095945050505050565b60606111d08686868686600067ffffffffffffffff81111561119857611197612328565b5b6040519080825280601f01601f1916602001820160405280156111ca5781602001600182028036833780820191505090505b506114e6565b905095945050505050565b60606112388686868686600067ffffffffffffffff811115611200576111ff612328565b5b6040519080825280601f01601f1916602001820160405280156112325781602001600182028036833780820191505090505b506116a8565b905095945050505050565b61129d84848484600067ffffffffffffffff81111561126557611264612328565b5b6040519080825280601f01601f1916602001820160405280156112975781602001600182028036833780820191505090505b5061186a565b50505050565b6112fd84848484600067ffffffffffffffff8111156112c5576112c4612328565b5b6040519080825280601f01601f1916602001820160405280156112f75781602001600182028036833780820191505090505b50611a24565b50505050565b60008151905060006a636f6e736f6c652e6c6f679050602083016000808483855afa5050505050565b8460000160009054906101000a900473ffffffffffffffffffffffffffffffffffffffff1673ffffffffffffffffffffffffffffffffffffffff166339255d5b8660010160009054906101000a900473ffffffffffffffffffffffffffffffffffffffff168760010160009054906101000a900473ffffffffffffffffffffffffffffffffffffffff1673ffffffffffffffffffffffffffffffffffffffff1663b4b333c6868989600067ffffffffffffffff8111156113ef576113ee612328565b5b6040519080825280601f01601f1916602001820160405280156114215781602001600182028036833780820191505090505b5060405160240161143594939291906125d7565b604051602081830303815290604052915060e01b6020820180517bffffffffffffffffffffffffffffffffffffffffffffffffffffffff8381831617835250505050846040518463ffffffff1660e01b815260040161149693929190612452565b6000604051808303816000875af11580156114b5573d6000803e3d6000fd5b505050506040513d6000823e3d601f19601f820116820180604052508101906114de919061258e565b505050505050565b60608660000160009054906101000a900473ffffffffffffffffffffffffffffffffffffffff1673ffffffffffffffffffffffffffffffffffffffff166339255d5b8860010160009054906101000a900473ffffffffffffffffffffffffffffffffffffffff168960010160009054906101000a900473ffffffffffffffffffffffffffffffffffffffff1673ffffffffffffffffffffffffffffffffffffffff166394229ecb888b8b8a600067ffffffffffffffff8111156115ac576115ab612328565b5b6040519080825280601f01601f1916602001820160405280156115de5781602001600182028036833780820191505090505b506040516024016115f3959493929190612623565b604051602081830303815290604052915060e01b6020820180517bffffffffffffffffffffffffffffffffffffffffffffffffffffffff8381831617835250505050856040518463ffffffff1660e01b815260040161165493929190612452565b6000604051808303816000875af1158015611673573d6000803e3d6000fd5b505050506040513d6000823e3d601f19601f8201168201806040525081019061169c919061258e565b90509695505050505050565b60608660000160009054906101000a900473ffffffffffffffffffffffffffffffffffffffff1673ffffffffffffffffffffffffffffffffffffffff166339255d5b8860010160009054906101000a900473ffffffffffffffffffffffffffffffffffffffff168960010160009054906101000a900473ffffffffffffffffffffffffffffffffffffffff1673ffffffffffffffffffffffffffffffffffffffff1663354b9590888b8b8a600067ffffffffffffffff81111561176e5761176d612328565b5b6040519080825280601f01601f1916602001820160405280156117a05781602001600182028036833780820191505090505b506040516024016117b5959493929190612623565b604051602081830303815290604052915060e01b6020820180517bffffffffffffffffffffffffffffffffffffffffffffffffffffffff8381831617835250505050856040518463ffffffff1660e01b815260040161181693929190612452565b6000604051808303816000875af1158015611835573d6000803e3d6000fd5b505050506040513d6000823e3d601f19601f8201168201806040525081019061185e919061258e565b90509695505050505050565b8460000160009054906101000a900473ffffffffffffffffffffffffffffffffffffffff1673ffffffffffffffffffffffffffffffffffffffff166339255d5b8660010160009054906101000a900473ffffffffffffffffffffffffffffffffffffffff168760010160009054906101000a900473ffffffffffffffffffffffffffffffffffffffff1673ffffffffffffffffffffffffffffffffffffffff166362fc305e878988600067ffffffffffffffff81111561192d5761192c612328565b5b6040519080825280601f01601f19166020018201604052801561195f5781602001600182028036833780820191505090505b50604051602401611973949392919061267d565b604051602081830303815290604052915060e01b6020820180517bffffffffffffffffffffffffffffffffffffffffffffffffffffffff8381831617835250505050846040518463ffffffff1660e01b81526004016119d493929190612452565b6000604051808303816000875af11580156119f3573d6000803e3d6000fd5b505050506040513d6000823e3d601f19601f82011682018060405250810190611a1c919061258e565b505050505050565b8460000160009054906101000a900473ffffffffffffffffffffffffffffffffffffffff1673ffffffffffffffffffffffffffffffffffffffff166339255d5b8660010160009054906101000a900473ffffffffffffffffffffffffffffffffffffffff168760010160009054906101000a900473ffffffffffffffffffffffffffffffffffffffff1673ffffffffffffffffffffffffffffffffffffffff166350209a62878988600067ffffffffffffffff811115611ae757611ae6612328565b5b6040519080825280601f01601f191660200182016040528015611b195781602001600182028036833780820191505090505b50604051602401611b2d949392919061267d565b604051602081830303815290604052915060e01b6020820180517bffffffffffffffffffffffffffffffffffffffffffffffffffffffff8381831617835250505050846040518463ffffffff1660e01b8152600401611b8e93929190612452565b6000604051808303816000875af1158015611bad573d6000803e3d6000fd5b505050506040513d6000823e3d601f19601f82011682018060405250810190611bd6919061258e565b505050505050565b6000604051905090565b600080fd5b600080fd5b600073ffffffffffffffffffffffffffffffffffffffff82169050919050565b6000611c1d82611bf2565b9050919050565b6000611c2f82611c12565b9050919050565b611c3f81611c24565b8114611c4a57600080fd5b50565b600081359050611c5c81611c36565b92915050565b611c6b81611c12565b8114611c7657600080fd5b50565b600081359050611c8881611c62565b92915050565b60008060408385031215611ca557611ca4611be8565b5b6000611cb385828601611c4d565b9250506020611cc485828601611c79565b9150509250929050565b6000611cd982611c12565b9050919050565b611ce981611cce565b8114611cf457600080fd5b50565b600081359050611d0681611ce0565b92915050565b6000819050919050565b611d1f81611d0c565b8114611d2a57600080fd5b50565b600081359050611d3c81611d16565b92915050565b60008060408385031215611d5957611d58611be8565b5b6000611d6785828601611cf7565b9250506020611d7885828601611d2d565b9150509250929050565b600081600b0b9050919050565b611d9881611d82565b8114611da357600080fd5b50565b600081359050611db581611d8f565b92915050565b600080600060608486031215611dd457611dd3611be8565b5b6000611de286828701611c79565b9350506020611df386828701611c4d565b9250506040611e0486828701611da6565b9150509250925092565b600060208284031215611e2457611e23611be8565b5b6000611e3284828501611c79565b91505092915050565b600080600060608486031215611e5457611e53611be8565b5b6000611e6286828701611c4d565b9350506020611e7386828701611da6565b9250506040611e8486828701611c79565b9150509250925092565b611e9781611c12565b82525050565b6000602082019050611eb26000830184611e8e565b92915050565b600080600060608486031215611ed157611ed0611be8565b5b6000611edf86828701611c4d565b9350506020611ef086828701611c79565b9250506040611f0186828701611da6565b9150509250925092565b6000819050919050565b6000611f30611f2b611f2684611bf2565b611f0b565b611bf2565b9050919050565b6000611f4282611f15565b9050919050565b6000611f5482611f37565b9050919050565b611f6481611f49565b82525050565b6000611f7582611f37565b9050919050565b611f8581611f6a565b82525050565b6000604082019050611fa06000830185611f5b565b611fad6020830184611f7c565b9392505050565b60008115159050919050565b611fc981611fb4565b82525050565b6000602082019050611fe46000830184611fc0565b92915050565b600082825260208201905092915050565b7f6d75737420626520617574686f72697a65640000000000000000000000000000600082015250565b6000612031601283611fea565b915061203c82611ffb565b602082019050919050565b6000602082019050818103600083015261206081612024565b9050919050565b61207081611d0c565b82525050565b600060608201905061208b6000830186611e8e565b6120986020830185611e8e565b6120a56040830184612067565b949350505050565b6120b681611fb4565b81146120c157600080fd5b50565b6000815190506120d3816120ad565b92915050565b6000602082840312156120ef576120ee611be8565b5b60006120fd848285016120c4565b91505092915050565b7f6f6e6c79206f776e65722063616e2077686974656c697374206163636f756e7460008201527f7300000000000000000000000000000000000000000000000000000000000000602082015250565b6000612162602183611fea565b915061216d82612106565b604082019050919050565b6000602082019050818103600083015261219181612155565b9050919050565b7f6f6e6c79206f776e65722063616e206368616e6765206f776e65727368697000600082015250565b60006121ce601f83611fea565b91506121d982612198565b602082019050919050565b600060208201905081810360008301526121fd816121c1565b9050919050565b7f6f6e6c79206f776e65722063616e2072656d6f7665206163636f756e74730000600082015250565b600061223a601e83611fea565b915061224582612204565b602082019050919050565b600060208201905081810360008301526122698161222d565b9050919050565b600081519050919050565b60005b8381101561229957808201518184015260208101905061227e565b838111156122a8576000848401525b50505050565b6000601f19601f8301169050919050565b60006122ca82612270565b6122d48185611fea565b93506122e481856020860161227b565b6122ed816122ae565b840191505092915050565b6000604082019050818103600083015261231281856122bf565b90506123216020830184611e8e565b9392505050565b7f4e487b7100000000000000000000000000000000000000000000000000000000600052604160045260246000fd5b600061236282611f37565b9050919050565b61237281612357565b82525050565b600060ff82169050919050565b61238e81612378565b82525050565b61239d81611d82565b82525050565b600081519050919050565b600082825260208201905092915050565b60006123ca826123a3565b6123d481856123ae565b93506123e481856020860161227b565b6123ed816122ae565b840191505092915050565b600060a08201905061240d6000830188612369565b61241a6020830187611e8e565b6124276040830186612385565b6124346060830185612394565b818103608083015261244681846123bf565b90509695505050505050565b60006060820190506124676000830186611f7c565b818103602083015261247981856123bf565b9050818103604083015261248d81846123bf565b9050949350505050565b600080fd5b600080fd5b6124aa826122ae565b810181811067ffffffffffffffff821117156124c9576124c8612328565b5b80604052505050565b60006124dc611bde565b90506124e882826124a1565b919050565b600067ffffffffffffffff82111561250857612507612328565b5b612511826122ae565b9050602081019050919050565b600061253161252c846124ed565b6124d2565b90508281526020810184848401111561254d5761254c61249c565b5b61255884828561227b565b509392505050565b600082601f83011261257557612574612497565b5b815161258584826020860161251e565b91505092915050565b6000602082840312156125a4576125a3611be8565b5b600082015167ffffffffffffffff8111156125c2576125c1611bed565b5b6125ce84828501612560565b91505092915050565b60006080820190506125ec6000830187612369565b6125f96020830186611e8e565b6126066040830185611e8e565b818103606083015261261881846123bf565b905095945050505050565b600060a0820190506126386000830188612369565b6126456020830187611e8e565b6126526040830186611e8e565b61265f6060830185612394565b818103608083015261267181846123bf565b90509695505050505050565b60006080820190506126926000830187612369565b61269f6020830186611e8e565b6126ac6040830185612394565b81810360608301526126be81846123bf565b90509594505050505056fea26469706673582212203dfd54ec8fb26acecdd5f5efadd1753b4c90f31fc35833d16e138b9a4587b9ac64736f6c634300080d00334465706c6f79696e672061204d6f6e657920526f757465722077697468206f776e65723a",
    "linkReferences": {},
    "deployedLinkReferences": {}
}